:020000020000FC
:020000000EC030
:1000080000C0039419F400C0139400C0800187D085
:1000180018012901189520E0222E20E0322E20E038
:10002800422E20E0522E22270FE701BB0EE107BB2C
:1000380000270F931F931AE701E11BBD0ABD0CE0CF
:100048000EBD00E409BF78941F910F910F9300E053
:100058004BD008BB022D3AD002BB25D00F910F938D
:1000680001E042D008BB032D31D002BB1CD00F9158
:100078000F9302E039D008BB042D28D002BB13D05F
:100088000F910F9303E030D008BB052D1FD002BBA2
:100098000AD00F9107EE13E01116C1F60016B1F65B
:1000A80000241124D3CFEF93FF93E5E0F0E005D0CF
:1000B8003197E9F7FF91EF910895EF93FF93EBECF8
:1000C800F7E03197F0F7FF91EF910895EF93FF93E1
:1000D800E6EEF0E0E00F0491FF91EF9108953F06FE
:1000E8005B4F666D7D077F6FEF93FF93E2E0F1E072
:1000F800E00F0491FF91EF910895020408108F9387
:100108009F93882799270217130720F0021B130BC8
:100118000196F9CF88019C019F918F9108956F9363
:100128007F938F939F9328EE33E0E9DF622F24E6D5
:1001380030E0E5DF722F2AE030E0E1DF822F902FF8
:10014800062F172F282F392F9F918F917F916F910D
:02015800089508
:00000001FF
