:020000020000FC
:1000000020E0222E20E0322E20E0422E20E0522E50
:100010000FEF01BB0EE107BB0F931F9300E054D01D
:10002000102F08BB022D42D002BB2DD01F910F9183
:100030000F931F9301E048D0102F08BB032D36D03B
:1000400002BB21D01F910F910F931F9302E03CD070
:10005000102F08BB042D2AD002BB15D01F910F9181
:100060000F931F9303E030D0102F08BB052D1ED037
:1000700002BB09D01F910F913F9353943AE035157D
:1000800059F65524C9CFEF93FF93E0E7F0E005D090
:100090003197E9F7FF91EF910895EF93FF93EBEC20
:1000A000F7E03197F0F7FF91EF910895EF93FF9309
:1000B000EEEBF0E0E00F0491FF91EF9108953F0621
:1000C0005B4F666D7D077F6FEF93FF93EAEDF0E086
:0E00D000E00F0491FF91EF91089502040810D3
:00000001FF
