:020000020000FC
:1000000020E0222E23E0322E25E0422E22E0522E46
:100010000FEF01BB0EE107BB12E018BB022D28D089
:1000200002BB13D014E018BB032D22D002BB0DD0AD
:1000300018E018BB042D1CD002BB07D010E118BB80
:10004000052D16D002BB01D0E7CFEF93FF93E5E07B
:10005000F0E005D03197E9F7FF91EF910895EF9324
:10006000FF93EBECF7E03197F0F7FF91EF910895F4
:10007000EF93FF93E2E8F0E0E00F0491FF91EF913E
:0C00800008953F065B4F666D7D077F4FC3
:00000001FF
