:020000020000FC
:020000002DC011
:0200080016C020
:1000160000C08F939F938FB796B390FD01C004C025
:10002600039411F4139400C08FBF9F918F9118957C
:100036009F938F933F932F931F930F9380018DD0A0
:1000460018012901002411240F911F912F913F912E
:100056008F919F91189520E0222E20E0322E20E0ED
:10006600422E20E0522E22270FE701BB0EE107BBEE
:1000760000270F9300E20BBF01E000BD0F910F9325
:100086001F930CE00EBD00E409BF1AE701E11BBD9A
:100096000ABD1F910F9178940F9300E043D008BBDF
:1000A600022D32D002BB1DD00F910F9301E03AD042
:1000B60008BB032D29D002BB14D00F910F9302E089
:1000C60031D008BB042D20D002BB0BD00F910F936B
:1000D60003E028D008BB052D17D002BB02D00F9134
:1000E600DBCFEF93FF93E5E0F0E005D03197E9F73A
:1000F600FF91EF910895EF93FF93EBECF7E03197C3
:10010600F0F7FF91EF910895EF93FF93E0E2F1E0AE
:10011600E00F0491FF91EF9108953F065B4F666DE6
:100126007D077F6FEF93FF93ECE3F1E0E00F04911F
:10013600FF91EF910895020408108F939F938827EB
:1001460099270217130720F0021B130B0196F9CF0C
:1001560088019C019F918F9108956F937F938F9350
:100166009F9328EE33E0E9DF622F24E630E0E5DFF7
:10017600722F2AE030E0E1DF822F902F062F172F13
:0E018600282F392F9F918F917F916F910895AF
:00000001FF
