:020000020000FC
:1000000020E0222E20E0322E20E0422E20E0522E50
:100010000FEF01BB0EE107BB08E816E275D00F93A6
:1000200003E057D008BB052D46D002BB31D00F915D
:1000300053944AE0451581F755240F9302E049D0C7
:1000400008BB042D38D002BB23D00F9143944AE063
:10005000441511F744240F9301E03BD008BB032D56
:100060002AD002BB15D00F9133943AE04315A1F684
:1000700033240F9300E02DD008BB022D1CD002BB0F
:1000800007D00F9123944AE0421531F62224C4CFC1
:10009000EF93FF93EFE0F0E005D03197E9F7FF91A0
:1000A000EF910895EF93FF93EBECF7E03197F0F7C2
:1000B000FF91EF910895EF93FF93E8ECF0E0E00FEC
:1000C0000491FF91EF9108953F065B4F666D7D07A8
:1000D0007F6FEF93FF93E4EEF0E0E00F0491FF9168
:1000E000EF910895020408108F939F938827992712
:1000F0000217130720F0021B130B0196F9CF88019A
:100100009C019F918F9108956F937F938F939F93FD
:1001100028EE33E0E9DF622F24E630E0E5DF722FDE
:100120002AE030E0E1DF822F902F062F172F282FB3
:0C013000392F9F918F917F916F9108955E
:00000001FF
