:020000020000FC
:020000001EC020
:0200080015C021
:1000160000C00F931F938F939F930FB7039409F418
:1000260013940FBF9F918F911F910F911895800187
:1000360091D018012901189520E0222E20E0322EB9
:1000460020E0422E20E0522E22270FE701BB0EE1D0
:1000560007BB00270F9300E60BBF03E005BF01E0D7
:1000660000BD0F910F931F931CE002E11BBD0ABD5B
:100076000CE00EBD00E409BF1F910F9178940F9319
:1000860000E04DD008BB022D3CD002BB27D00F911B
:100096000F9301E044D008BB032D33D002BB1ED022
:1000A6000F910F9302E03BD008BB042D2AD002BB70
:1000B60015D00F910F9303E032D008BB052D21D048
:1000C60002BB0CD00F910FE017E2111618F019F4CD
:1000D600001608F4D4CF00241124D1CFEF93FF9358
:1000E600E5E0F0E005D03197E9F7FF91EF9108954B
:1000F600EF93FF93EBECF7E03197F0F7FF91EF9179
:100106000895EF93FF93EAE1F1E0E00F0491FF9188
:10011600EF9108953F065B4F666D7D077F6FEF9306
:10012600FF93E6E3F1E0E00F0491FF91EF9108956C
:10013600020408108F939F938827992702171307A5
:1001460020F0021B130B0196F9CF88019C019F91A9
:100156008F9108956F937F938F939F9328EE33E04B
:10016600E9DF622F24E630E0E5DF722F2AE030E097
:10017600E1DF822F902F062F172F282F392F9F91DF
:080186008F917F916F910895A4
:00000001FF
