:020000020000FC
:0200000011C02D
:100008000BC008E00EBD04E00EBD03E60ABD00E02B
:100018000BBD00E409BF08950394189520E0222E33
:1000280020E0322E20E0422E20E0522E0FEF01BBBE
:100038000EE107BBE6DF78940F9300E054D008BBCD
:10004800022D43D002BB2ED00F910F9301E04BD06D
:1000580008BB032D3AD002BB25D00F910F9302E0C5
:1000680042D008BB042D31D002BB1CD00F910F9396
:1000780003E039D008BB052D28D002BB13D00F915F
:10008800039419F400C0139400C0800147D01801EC
:10009800290107EE13E0111669F6001659F6002437
:1000A8001124C8CFEF93FF93E1E0F0E005D031973A
:1000B800E9F7FF91EF910895EF93FF93EBECF7E0E9
:1000C8003197F0F7FF91EF910895EF93FF93E4EEE6
:1000D800F0E0E00F0491FF91EF9108953F065B4F28
:1000E800666D7D077F6FEF93FF93E0E0F1E0E00F2F
:1000F8000491FF91EF910895020408108F939F9344
:10010800882799270217130720F0021B130B019663
:10011800F9CF88019C019F918F9108956F937F93E8
:100128008F939F9328EE33E0E9DF622F24E630E0D7
:10013800E5DF722F2AE030E0E1DF822F902F062FD3
:10014800172F282F392F9F918F917F916F910895A5
:00000001FF
