:020000020000FC
:1000000020E0222E23E0322E25E0422E22E0522E46
:100010000FEF01BB0EE107BB0F931F9300E04ED023
:10002000102F08BB022D3CD002BB27D01F910F918F
:100030000F931F9301E042D0102F08BB032D30D047
:1000400002BB1BD01F910F910F931F9302E036D07C
:10005000102F08BB042D24D002BB0FD01F910F918D
:100060000F931F9303E02AD0102F08BB052D18D043
:1000700002BB03D01F910F91CFCFEF93FF93E5E029
:10008000F0E005D03197E9F7FF91EF910895EF93F4
:10009000FF93EBECF7E03197F0F7FF91EF910895C4
:1000A000EF93FF93E2EBF0E0E00F0491FF91EF910B
:1000B00008953F065B4F666D7D077F4FEF93FF937B
:1000C000EEECF0E0E00F0491FF91EF91089502044F
:0200D000081016
:00000001FF
