:020000020000FC
:0200000029C015
:0200080012C024
:1000160000C08F939F938FB7039411F4139400C07D
:100026008FBF9F918F9118950F931F932F933F9397
:100036004F934FB780010024112449D0180129019C
:100046004FBF4F913F912F911F910F9118950F938D
:10005600F89400E20BBF01E000BD78940F910F9376
:100066001F930CE00EBD00E409BF1DE308E01BBDB5
:100076000ABD1F910F9120E0222E322E422E522EC3
:100086000FE701BB0EE107BB002778940F9302E050
:1000960008BB022D4BD002BB52D00F910F9304E048
:1000A60008BB032D43D002BB4AD00F910F9308E043
:1000B60008BB042D3BD002BB42D00F910F9300E149
:1000C60008BB052D33D002BB3AD00F91DFCF6F931B
:1000D6007F938F939F9328EE33E013D0622F24E60D
:1000E60030E00FD0722F2AE030E00BD0822F902F15
:1000F600062F172F282F392F9F918F917F916F9160
:1001060008958F939F93882799270217130720F046
:10011600021B130B0196F9CF8801282F9F918F910F
:1001260008953F065B4F666D7D077F6FEF93FF93E4
:10013600E8E2F1E0E00F0491FF91EF9108958F93CB
:100146009F9385E090E005D00197E9F79F918F9105
:1001560008958F939F9380ED97E00197F1F79F9114
:040166008F910895D8
:00000001FF
