:020000020000FC
:1000000020E0222E20E0322E20E0422E20E0522E50
:100010000FEF01BB0EE107BB0F9300E057D008BB09
:10002000022D46D002BB31D00F9123943AE0321515
:1000300099F722240F9301E049D008BB032D38D053
:1000400002BB23D00F9133943AE0331529F73324C0
:100050000F9302E03BD008BB042D2AD002BB15D081
:100060000F9143943AE03415B9F644240F9303E01A
:100070002DD008BB052D1CD002BB07D00F91539487
:100080003AE0351549F65524C7CFEF93FF93EFE0DB
:10009000F0E005D03197E9F7FF91EF910895EF93E4
:1000A000FF93EBECF7E03197F0F7FF91EF910895B4
:1000B000EF93FF93E2ECF0E0E00F0491FF91EF91FA
:1000C00008953F065B4F666D7D077F6FEF93FF934B
:1000D000EEEDF0E0E00F0491FF91EF91089502043E
:0200E000081006
:00000001FF
