:020000020000FC
:020000002DC011
:0200080016C020
:1000160000C08F939F938FB796B390FD01C004C025
:10002600039411F4139400C08FBF9F918F9118957C
:100036000F931F932F933F938F939F93D00151D08C
:100046001D012E01002411249F918F913F912F9124
:100056001F910F9118950F9300E20BBF01E000BDB1
:100066000F910F931F930CE00EBD00E409BF1AE732
:1000760001E11BBD0ABD1F910F9120E0222E20E059
:10008600322E20E0422E20E0522E22270FE701BB1F
:100096000EE107BB002778940F9300E04AD008BB17
:1000A600022D57D002BB5ED00F910F9301E041D0D5
:1000B60008BB032D4ED002BB55D00F910F9302E023
:1000C60038D008BB042D45D002BB4CD00F910F93FE
:1000D60003E02FD008BB052D3CD002BB43D00F91C7
:1000E600DBCF6F937F938F939F93C8EED3E013D0AC
:1000F600622FC4E6D0E00FD0722FCAE0D0E00BD05A
:10010600822F902F062F172F282F392F9F918F91EF
:100116007F916F9108958F939F930217130720F095
:10012600021B130B0196F9CF88019C019F918F91B9
:100136000895EF93FF93EAE4F1E0E00F0491FF9155
:10014600EF910895020408103F065B4F666D7D0728
:10015600FF6FEF93FF93EEE4F1E0E00F0491FF9160
:10016600EF9108958F939F9385E090E005D00197D6
:10017600E9F79F918F9108958F939F9380ED97E074
:0A0186000197F1F79F918F91089502
:00000001FF
