:020000020000FC
:1000000020E0222E20E0322E20E0422E20E0522E50
:100010000FEF01BB0EE107BB03EB15E124EF31E06D
:1000200065D00F9300E057D008BB022D46D002BB2D
:1000300031D00F9123943AE0321571F722240F93B7
:1000400001E049D008BB032D38D002BB23D00F916B
:1000500033943AE0331501F733240F9302E03BD099
:1000600008BB042D2AD002BB15D00F9143943AE06F
:10007000341591F644240F9303E02DD008BB052DD1
:100080001CD002BB07D00F9153943AE0351521F6EE
:100090005524C2CFEF93FF93EFE0F0E005D0319706
:1000A000E9F7FF91EF910895EF93FF93EBECF7E001
:1000B0003197F0F7FF91EF910895EF93FF93ECECF8
:1000C000F0E0E00F0491FF91EF9108953F065B4F40
:1000D000666D7D077F6FEF93FF93E8EEF0E0E00F32
:1000E0000491FF91EF910895020408108F939F935C
:1000F0000217130720F0021B130B0196F7CF88019C
:080100009C019F918F9108956D
:00000001FF
